{
  "contractName": "SimpleStorage",
  "abi": [
    {
      "constant": true,
      "inputs": [],
      "name": "ipfs_Hash",
      "outputs": [
        {
          "name": "",
          "type": "string"
        }
      ],
      "payable": false,
      "stateMutability": "view",
      "type": "function"
    },
    {
      "constant": true,
      "inputs": [],
      "name": "fileDetail",
      "outputs": [
        {
          "name": "ipfsHash",
          "type": "string"
        },
        {
          "name": "Owner",
          "type": "address"
        }
      ],
      "payable": false,
      "stateMutability": "view",
      "type": "function"
    },
    {
      "constant": false,
      "inputs": [
        {
          "name": "_ipfsHash",
          "type": "string"
        },
        {
          "name": "filename",
          "type": "string"
        }
      ],
      "name": "set_value",
      "outputs": [],
      "payable": false,
      "stateMutability": "nonpayable",
      "type": "function"
    },
    {
      "constant": false,
      "inputs": [
        {
          "name": "filename",
          "type": "string"
        }
      ],
      "name": "buy",
      "outputs": [],
      "payable": true,
      "stateMutability": "payable",
      "type": "function"
    },
    {
      "constant": true,
      "inputs": [
        {
          "name": "filename",
          "type": "string"
        }
      ],
      "name": "get_value",
      "outputs": [
        {
          "name": "",
          "type": "string"
        },
        {
          "name": "",
          "type": "address"
        },
        {
          "name": "",
          "type": "address"
        }
      ],
      "payable": false,
      "stateMutability": "view",
      "type": "function"
    },
    {
      "constant": false,
      "inputs": [
        {
          "name": "x",
          "type": "string"
        }
      ],
      "name": "set",
      "outputs": [],
      "payable": false,
      "stateMutability": "nonpayable",
      "type": "function"
    },
    {
      "constant": true,
      "inputs": [
        {
          "name": "x",
          "type": "string"
        }
      ],
      "name": "get",
      "outputs": [
        {
          "name": "",
          "type": "string"
        }
      ],
      "payable": false,
      "stateMutability": "view",
      "type": "function"
    }
  ],
  "bytecode": "0x6080604052600160025534801561001557600080fd5b50610c9e806100256000396000f300608060405260043610610083576000357c0100000000000000000000000000000000000000000000000000000000900463ffffffff1680631ff1f33c14610088578063492cc769146101d05780634ed3885e1461022c578063693ec85e14610295578063700360f514610377578063e2c033ab14610426578063f57c66a9146104b6575b600080fd5b34801561009457600080fd5b506100ef600480360381019080803590602001908201803590602001908080601f0160208091040260200160405190810160405280939291908181526020018383808284378201915050505050509192919290505050610579565b60405180806020018473ffffffffffffffffffffffffffffffffffffffff1673ffffffffffffffffffffffffffffffffffffffff1681526020018373ffffffffffffffffffffffffffffffffffffffff1673ffffffffffffffffffffffffffffffffffffffff168152602001828103825285818151815260200191508051906020019080838360005b83811015610193578082015181840152602081019050610178565b50505050905090810190601f1680156101c05780820380516001836020036101000a031916815260200191505b5094505050505060405180910390f35b61022a600480360381019080803590602001908201803590602001908080601f0160208091040260200160405190810160405280939291908181526020018383808284378201915050505050509192919290505050610725565b005b34801561023857600080fd5b50610293600480360381019080803590602001908201803590602001908080601f016020809104026020016040519081016040528093929190818152602001838380828437820191505050505050919291929050505061080f565b005b3480156102a157600080fd5b506102fc600480360381019080803590602001908201803590602001908080601f0160208091040260200160405190810160405280939291908181526020018383808284378201915050505050509192919290505050610829565b6040518080602001828103825283818151815260200191508051906020019080838360005b8381101561033c578082015181840152602081019050610321565b50505050905090810190601f1680156103695780820380516001836020036101000a031916815260200191505b509250505060405180910390f35b34801561038357600080fd5b50610424600480360381019080803590602001908201803590602001908080601f0160208091040260200160405190810160405280939291908181526020018383808284378201915050505050509192919290803590602001908201803590602001908080601f0160208091040260200160405190810160405280939291908181526020018383808284378201915050505050509192919290505050610833565b005b34801561043257600080fd5b5061043b6109e5565b6040518080602001828103825283818151815260200191508051906020019080838360005b8381101561047b578082015181840152602081019050610460565b50505050905090810190601f1680156104a85780820380516001836020036101000a031916815260200191505b509250505060405180910390f35b3480156104c257600080fd5b506104cb610a83565b60405180806020018373ffffffffffffffffffffffffffffffffffffffff1673ffffffffffffffffffffffffffffffffffffffff168152602001828103825284818151815260200191508051906020019080838360005b8381101561053d578082015181840152602081019050610522565b50505050905090810190601f16801561056a5780820380516001836020036101000a031916815260200191505b50935050505060405180910390f35b60606000806001846040518082805190602001908083835b6020831015156105b65780518252602082019150602081019050602083039250610591565b6001836020036101000a03801982511681845116808217855250505050505090500191505090815260200160405180910390206000016001856040518082805190602001908083835b60208310151561062457805182526020820191506020810190506020830392506105ff565b6001836020036101000a038019825116818451168082178552505050505050905001915050908152602001604051809103902060010160009054906101000a900473ffffffffffffffffffffffffffffffffffffffff1633828054600181600116156101000203166002900480601f0160208091040260200160405190810160405280929190818152602001828054600181600116156101000203166002900480156107115780601f106106e657610100808354040283529160200191610711565b820191906000526020600020905b8154815290600101906020018083116106f457829003601f168201915b505050505092509250925092509193909250565b806002543414151561073657600080fd5b6001826040518082805190602001908083835b60208310151561076e5780518252602082019150602081019050602083039250610749565b6001836020036101000a038019825116818451168082178552505050505050905001915050908152602001604051809103902060010160009054906101000a900473ffffffffffffffffffffffffffffffffffffffff1673ffffffffffffffffffffffffffffffffffffffff166108fc349081150290604051600060405180830381858888f1935050505015801561080a573d6000803e3d6000fd5b505050565b8060009080519060200190610825929190610b4d565b5050565b6060819050919050565b8160009080519060200190610849929190610b4d565b50604080519081016040528060008054600181600116156101000203166002900480601f0160208091040260200160405190810160405280929190818152602001828054600181600116156101000203166002900480156108eb5780601f106108c0576101008083540402835291602001916108eb565b820191906000526020600020905b8154815290600101906020018083116108ce57829003601f168201915b505050505081526020013373ffffffffffffffffffffffffffffffffffffffff168152506001826040518082805190602001908083835b6020831015156109475780518252602082019150602081019050602083039250610922565b6001836020036101000a03801982511681845116808217855250505050505090500191505090815260200160405180910390206000820151816000019080519060200190610996929190610bcd565b5060208201518160010160006101000a81548173ffffffffffffffffffffffffffffffffffffffff021916908373ffffffffffffffffffffffffffffffffffffffff1602179055509050505050565b60008054600181600116156101000203166002900480601f016020809104026020016040519081016040528092919081815260200182805460018160011615610100020316600290048015610a7b5780601f10610a5057610100808354040283529160200191610a7b565b820191906000526020600020905b815481529060010190602001808311610a5e57829003601f168201915b505050505081565b6003806000018054600181600116156101000203166002900480601f016020809104026020016040519081016040528092919081815260200182805460018160011615610100020316600290048015610b1d5780601f10610af257610100808354040283529160200191610b1d565b820191906000526020600020905b815481529060010190602001808311610b0057829003601f168201915b5050505050908060010160009054906101000a900473ffffffffffffffffffffffffffffffffffffffff16905082565b828054600181600116156101000203166002900490600052602060002090601f016020900481019282601f10610b8e57805160ff1916838001178555610bbc565b82800160010185558215610bbc579182015b82811115610bbb578251825591602001919060010190610ba0565b5b509050610bc99190610c4d565b5090565b828054600181600116156101000203166002900490600052602060002090601f016020900481019282601f10610c0e57805160ff1916838001178555610c3c565b82800160010185558215610c3c579182015b82811115610c3b578251825591602001919060010190610c20565b5b509050610c499190610c4d565b5090565b610c6f91905b80821115610c6b576000816000905550600101610c53565b5090565b905600a165627a7a723058207c2c08cce8499891b7d17bc61eda6db67b86880160f9c9b4d33e076f120817450029",
  "source": "pragma solidity ^0.4.24;\n// The carrot in the version signifies \"Min.\" so for this instance, minimum version requirement is 0.4.24.\n// Refrain from chainging to old version since that was giving problems while calling the value via the get function\n\n/*\n    Date: 8 June 2018\n    Purpose: The contract is meant to include the following logic:\n                User 1 has IOT data which he wants to sell\n                User 2 wants the data\n                User 1 gets currency and transfers data to User 2\n                The data in this case being the IPFS hash through which the files can be accessed\n                Each IPFS hash can be a collective data (Temp, presssure, humidity)  or seperate\n                Data is generated only once a day so unique IPFS hash everyday\n*/\n\ncontract SimpleStorage {\n    \n  //A struct to record the details when user creates a hash input to blockchain\n  struct FileDetail \n  {\n      string ipfsHash; address Owner;\n  }\n  \n  //Currently set hash value\n  string public ipfs_Hash;\n  \n  //Map filename with Hash. The string key here is the filename which will be provided by user\n  //Note:Mapping should not be public\n  mapping (string => FileDetail)  mappedHash;\n    \n  //Min. ether required to perform transaction. This is global static since we dont impose variable or quantity right now\n  //Only single file transaction is allowed for now so no need to complicate this\n  uint256 MinEther = 1;\n  FileDetail public fileDetail;\n  \n  //Write to chain\n  function set_value(string _ipfsHash, string filename) public {\n    ipfs_Hash = _ipfsHash;\n    mappedHash[filename] = FileDetail(ipfs_Hash, msg.sender);\n  }\n\n\n  //check if the file exists and also check the fulfillment of ether requirement\n  modifier hasEnoughEther (string filename) {\n        //does not seem to work\n        //require (mappedHash[filename].isValue);\n        require (msg.value == MinEther); \n        _;\n    }\n  //Seems solitidy requires a paybable function for ether exchange \n  function buy (string filename) payable public hasEnoughEther (filename) {\n      //minimum ether is 1 but the buyer can send any amount of ether.\n      //TODO: have this notification in the UI as well. Ether is higher unit than gas so use gas since metamask used gas by default\n      //1000 Gas ~ 0.27 ether\n        mappedHash[filename].Owner.transfer(msg.value);\n    }\n    \n  //Get the desired hash based on the filename provided\n  function get_value(string filename) public view returns (string, address, address) {\n   \n    return (mappedHash[filename].ipfsHash, \n            mappedHash[filename].Owner, \n            msg.sender);\n  }\n   \n  /* NOT IN USE NOW. Set get function for testing out the contract.*/\n\n  function set(string x){\n    ipfs_Hash = x;\n  }\n\n  function get(string x) public view returns (string) {    \n    return x;\n  }\n\n}\n",
  "sourcePath": "D:\\TU\\_SEM 3\\Advanced web technologies-9\\GIT\\SemanticWebAndIOT\\Source\\Transaction Project\\Etherium DApp\\contracts\\SimpleStorage.sol",
  "compiler": {
    "name": "solc",
    "version": "0.4.24+commit.e67f0147.Emscripten.clang"
  },
  "schemaVersion": "2.0.0",
  "updatedAt": "2018-07-27T22:32:23.124Z"
}